:1000000067C07FC07EC07DC07CC07BC07AC079C025
:1000100078C077C0000047404620528045C09B22F0
:1000200054CA4400544006C0E500254800C02108D9
:1000300000401B2056C005409F428FC06548ADE080
:100040006DC08760557E45F8028002C003A25294BD
:1000500003A28740AF6A7E8AAFC05462AEC0AD6271
:10006000AD20746EA92A054096E0ABA2A842EB2A07
:10007000E9AA76C8AF0076CAAF824DE08560A06A73
:10008000D2E0B9AADBA2C3609F620562C182046AA2
:1000900046000842060011C2A9C0114A116A534223
:1000A0007C007900A94081408940B9400540398AE7
:1000B000294011C07A88728A01C83940F04052C084
:1000C00030C8599A49D842DA23A20540D908618834
:1000D00011241FBECFE9CDBF10E0A0E6B0E0ECEAEE
:1000E000F3E002C005900D92A837B107D9F710E0F0
:1000F000A8E7B0E001C01D92A038B107E1F77DD0BC
:1001000053C17ECF282FE82FF0E0E858FF4F9081B1
:10011000862F892381F0442339F0413059F46770E8
:10012000655F862F821B089562956770822F860F08
:100130008C5F089580E00895E8E7F0E0178216826A
:100140001582148213821282118210820895E82F80
:10015000E695E695E695F0E0E858FF4F282F2770E2
:1001600080E890E002C0959587952A95E2F7908106
:10017000892B80830895EF92FF920F931F93CF9363
:10018000DF93F82EE62FEE0F10EC1E0FC0E0D0E04C
:10019000E12C00E0011109C081E0810FE12FF0E0C6
:1001A000EC5EFF4FE490182F00E8CE0165E070E0B0
:1001B000E7D06F0D6C30A8F4262F30E080FF08C028
:1001C00001966CE070E0CBD0821B930B019705C0C9
:1001D0006CE070E0C4D0820F931F2E2D202309F015
:1001E000B6DF06952196CF30D105A1F6DF91CF91EC
:1001F0001F910F91FF90EF900895BB9A9DDF00E64D
:1002000010E0C0E0F80161918F01809176008C0FC1
:10021000B2DFCC5FC435B1F7809176008150883A67
:100220000CF48CE08093760062E870E08CE390E060
:1002300094D0FFEF27E582E0F15020408040E1F7C5
:1002400000C00000DBCF27B3242B27BB28B3342FFB
:100250003095232338B3432B3FB7F894FC01680F44
:10026000791FE617F70769F0819198E048BB000015
:1002700087FF28BB880F00C000C028BB9A95B1F744
:10028000F0CF3FBF08959B01220F331F620F731FF2
:10029000DADF80EA8A95F1F70000089548E0F3CFAD
:1002A000660F771F660F771F48E0CDDF8FEB90E07A
:1002B0000197F1F700C00000089548E0C4CF9F9275
:1002C000AF92BF92CF92DF92EF92FF920F931F9364
:1002D000CF93DF936B0197B3942B97BB98B3042F05
:1002E0000095092398B3F42EF92A9FB6F894895FF4
:1002F000C82FC695C695C695D0E0DC1709F188E0F1
:10030000A82EB12C90E8E92E13E0115090F0412F67
:100310006E2D8D2FF6010995F82F88E0F8BA0000B0
:10032000F7FF08BBFF0F00C000C008BB8A95B1F7FC
:10033000ECCFE69481E0A81AB10831F7DF5FDDCF9A
:100340009FBEDF91CF911F910F91FF90EF90DF90B3
:10035000CF90BF90AF909F90089548E0B0CF002419
:10036000552704C0080E591F880F991F009729F0C0
:1003700076956795B8F37105B9F7802D952F089597
:10038000AA1BBB1B51E107C0AA1FBB1FA617B707BB
:1003900010F0A61BB70B881F991F5A95A9F78095D7
:0C03A0009095BC01CD010895F894FFCFAA
:1003AC00492057414E4E4120424520594F5552202D
:0803BC004C4F564552000C00A5
:00000001FF
